:100000000C9462000C948A000C948A000C948A0070
:100010000C948A000C948A000C948A000C948A0038
:100020000C948A000C948A000C948A000C948A0028
:100030000C948A000C948A000C948A000C948A0018
:100040000C942B040C948A000C949B040C9475045F
:100050000C948A000C948A000C948A000C948A00F8
:100060000C948A000C948A000000000024002700F1
:100070002A0000000000250028002B0000000008D6
:10008000000201000003040700000000000000005F
:1000900000000000230026002900040404040404D6
:1000A0000404020202020202030303030303010227
:1000B00004081020408001020408102001020408F6
:1000C0001020CD0411241FBECFEFD8E0DEBFCDBF7E
:1000D00022E0A4E5B1E001C01D92A131B207E1F731
:1000E00011E0A0E0B1E0EEEDF6E102C005900D9266
:1000F000A435B107D9F710E0C2E6D0E004C02197DB
:10010000FE010E946C09C136D107C9F70E941A0589
:100110000C946D0B0C940000CF92DF92EF92FF9243
:10012000CF93DF93B0910102A0E08111AB2F8091BA
:10013000020290E0880F991FAC0140575F4FC090BA
:100140000702D0900802E0900902F0900A0230E025
:1001500020E0FA01C591D491E881B90190E080E0F6
:10016000EB23EA130AC02F5F3F4F6C157D058E0508
:100170009F0578F36FEF7FEFCB01DF91CF91FF9079
:10018000EF90DF90CF900895CF93DF9390E0FC0144
:10019000E255FF4F249186569F4FFC01849188239E
:1001A000D1F090E0880F991FFC01E859FF4FA5910D
:1001B000B491FC01EE58FF4FC591D491623071F4B7
:1001C0009FB7F8943C91822F809583238C93E8818C
:1001D0002E2B28839FBFDF91CF9108958FB7F8947E
:1001E000EC912E2B2C938FBFF6CF3FB7F8948091D4
:1001F000550190915601A0915701B091580126B533
:10020000A89B05C02F3F19F00196A11DB11D3FBF4E
:10021000BA2FA92F982F8827BC01CD01620F711D1D
:10022000811D911D42E0660F771F881F991F4A9517
:10023000D1F708958F929F92AF92BF92CF92DF92A3
:10024000EF92FF924B015C010E94F5006B017C0173
:100250000E94F5006C197D098E099F09683E734064
:1002600081059105A8F321E0821A9108A108B1083F
:1002700088EEC80E83E0D81EE11CF11C81149104A5
:10028000A104B10429F7FF90EF90DF90CF90BF90C9
:10029000AF909F908F9008958F929F92AF92BF9250
:1002A000EF92FF920F931F93CF93DF93CDB7DEB7FB
:1002B000C054D1400FB6F894DEBF0FBECDBF2FB7EC
:1002C000F8948091590190915A01A0915B01B091ED
:1002D0005C012FBF4091030250910402609105021E
:1002E000709106028C019D01041B150B260B370B28
:1002F000B901A801403D574061057105A0F4809106
:100300000B02C05CDE4F0FB6F894DEBF0FBECDBF50
:10031000DF91CF911F910F91FF90EF90BF90AF9021
:100320009F908F9008958093030290930402A0936E
:100330000502B09306021092FE011092FD01109288
:10034000FC011092FB011092FA0162E08091FF0122
:100350000E94C40061E070E080E090E00E941A0119
:1003600061E08091FF010E94C4008091FF0190E054
:10037000FC01E458FF4F2491FC01E255FF4F3491FA
:10038000FC01E656FF4FE491EE23D9F0222359F009
:10039000233009F44BC008F03EC0213009F44CC0B2
:1003A000223009F44DC0F0E0EE0FFF1FEE58FF4F72
:1003B000A591B4918FB7F894EC9130953E233C937E
:1003C0008FBF809100028551823008F046C08BE2D9
:1003D00091E10197F1F762E08091FF010E94C40072
:1003E00080910C0290E08230910538F0880F991FBF
:1003F000880F991F05970197F1F7F89480E00E9404
:100400008C006F3F7F4F8F4F9F4F71F510920B0203
:10041000789480E076CF2730B1F02830D1F02430C6
:1004200009F0C1CF809180008F7D03C08091800052
:100430008F7780938000B7CF84B58F7784BDB3CF9B
:1004400084B58F7DFBCF8091B0008F778093B00013
:10045000AACF8091B0008F7DF9CF64E170E080E099
:1004600090E00E941A01B7CF81E00E948C006F3F9C
:100470007F4F8F4F9F4F51F2CE0101967C015E015D
:100480009FEBA91A9EEFB90A870180E00E948C00B9
:10049000F801608371838283938381E00E948C00E2
:1004A000F8016483758386839783085F1F4FA016C6
:1004B000B10659F7789430E020E0F7018080918010
:1004C000A280B3804481558166817781FFEF8F16CA
:1004D0009F06AF06BF0631F04F3F0FEF5007600792
:1004E000700719F410920B0294CFF90183E0F5958F
:1004F000E7958A95E1F7E650FE4F8081880F8416D4
:100500009506A606B70618F180832F5F3F4F18E0C7
:10051000E10EF11C2832310581F64091FE01209157
:10052000FA018091FB01280F3327331F8091FC01D2
:10053000280F311D8091FD01820F932F911D992766
:100540004817190679F681E080930B02DACE8160B4
:10055000DBCFAF92BF92CF92DF92EF92FF920F93D9
:100560001F93CF93DF936C017B018B01040F151F49
:10057000EB015E01AE18BF08C017D10759F06991B1
:10058000D601ED91FC910190F081E02DC601099515
:10059000892B79F7C501DF91CF911F910F91FF90C2
:1005A000EF90DF90CF90BF90AF900895FC01538DF6
:1005B000448D252F30E0842F90E0821B930B54173D
:1005C00010F0CF96089501970895FC01918D828DCA
:1005D000981761F0A28DAE0FBF2FB11D5D968C9163
:1005E000928D9F5F9F73928F90E008958FEF9FEFA2
:1005F00008952FB7F8948091590190915A01A091D4
:100600005B01B0915C012FBF8093650190936601FF
:10061000A0936701B09368018DE591E00E94E50227
:1006200097FF26C02FB7F8948091590190915A01F5
:10063000A0915B01B0915C012FBF40916501509189
:1006400066016091670170916801841B950BA60B90
:10065000B70B40916101509162016091630170910B
:10066000640184179507A607B707B0F28FEF9FEFD5
:100670000895FC01918D828D981731F0828DE80FDD
:10068000F11D858D90E008958FEF9FEF0895FC0197
:10069000918D228D892F90E0805C9F4F821B910964
:1006A0008F73992708958DE591E00E94470321E01B
:1006B000892B09F420E0822F089580E090E0892BB7
:1006C00029F00E94530381110C9400000895FC014D
:1006D000A48DA80FB92FB11DA35ABF4F2C91848DA3
:1006E00090E001968F739927848FA689B7892C9300
:1006F000A089B1898C91837080648C93938D848D53
:10070000981306C00288F389E02D80818F7D808355
:100710000895EF92FF920F931F93CF93DF93EC0115
:1007200081E0888F9B8D8C8D98131AC0E889F98998
:10073000808185FF15C09FB7F894EE89FF8960839B
:10074000E889F98980818370806480839FBF81E01C
:1007500090E0DF91CF911F910F91FF90EF9008955E
:10076000F62E0B8D10E00F5F1F4F0F731127E02E39
:100770008C8D8E110CC00FB607FCFACFE889F98971
:10078000808185FFF5CFCE010E946703F1CFEB8D0D
:10079000EC0FFD2FF11DE35AFF4FF0829FB7F89445
:1007A0000B8FEA89FB8980818062CFCFCF93DF9363
:1007B000EC01888D8823B9F0AA89BB89E889F98979
:1007C0008C9185FD03C0808186FD0DC00FB607FCAE
:1007D000F7CF8C9185FFF2CF808185FFEDCFCE01E1
:1007E0000E946703E9CFDF91CF910895FC0101904A
:1007F0000020E9F73197AF01481B590BBC018DE58B
:1008000091E00C94A9020F931F93CF93DF93EC0117
:1008100088819981009759F02A813B8126173707F3
:1008200030F081E0DF91CF911F910F9108958B01FE
:100830006F5F7F4F0E94970A009759F099838883D2
:100840001B830A832C813D81232B59F7FC011082E5
:10085000E8CF80E0E7CF1F920F920FB60F921124DE
:100860002F933F938F939F93AF93BF9380915901A1
:1008700090915A01A0915B01B0915C0130915401BB
:1008800023E0230F2D3758F50196A11DB11D2093AC
:1008900054018093590190935A01A0935B01B09346
:1008A0005C018091550190915601A0915701B09142
:1008B00058010196A11DB11D8093550190935601D9
:1008C000A0935701B0935801BF91AF919F918F9121
:1008D0003F912F910F900FBE0F901F90189526E813
:1008E000230F0296A11DB11DD2CF1F920F920FB6FA
:1008F0000F9211242F933F934F935F936F937F93A6
:100900008F939F93AF93BF93EF93FF938DE591E008
:100910000E946703FF91EF91BF91AF919F918F91DB
:100920007F916F915F914F913F912F910F900FBEEB
:100930000F901F9018951F920F920FB60F921124CF
:100940002F938F939F93EF93FF93E0916D01F0911D
:100950006E018081E0917301F091740182FD1BC0F2
:100960009081809176018F5F8F732091770182173C
:1009700041F0E0917601F0E0E35AFE4F958F8093CD
:100980007601FF91EF919F918F912F910F900FBE64
:100990000F901F9018958081F4CFEDE5F1E0138260
:1009A000128288EE93E0A0E0B0E084839583A68372
:1009B000B7838AE091E09183808385EC90E095870E
:1009C000848784EC90E09787868780EC90E0918B19
:1009D000808B81EC90E0938B828B82EC90E0958B06
:1009E000848B86EC90E0978B868B118E128E138E03
:1009F000148EAAEFB1E082E015968C93159786E1EC
:100A000016968C931697E0EBF0E0E4911796EC9332
:100A10001797ECE9F0E0E4911896EC93189740E80A
:100A20005EE360E070E01D964D935D936D937C9363
:100A300050970895CF93DF93CDB7DEB7A7970FB642
:100A4000F894DEBF0FBECDBF789484B5826084BDBC
:100A500084B5816084BD85B5826085BD85B58160C2
:100A600085BD80916E00816080936E001092810040
:100A700080918100826080938100809181008160FB
:100A800080938100809180008160809380008091BC
:100A9000B10084608093B1008091B0008160809348
:100AA000B00080917A00846080937A0080917A000F
:100AB000826080937A0080917A00816080937A00CE
:100AC00080917A00806880937A001092C10062E081
:100AD0008091FF010E94C4002FB7F89480915901C2
:100AE00090915A01A0915B01B0915C012FBF805D94
:100AF0009740A109B1098093030290930402A09347
:100B00000502B093060287E380930C02E0916D0129
:100B1000F0916E0182E08083E0916901F0916A01B9
:100B20001082E0916B01F0916C018FEC8083109248
:100B30007501E0917101F091720186E08083E0918E
:100B40006F01F0917001808180618083E0916F017D
:100B5000F0917001808188608083E0916F01F09155
:100B60007001808180688083E0916F01F091700155
:100B700080818F7D80839AE0492E512C612C712CCD
:100B800020E0822E20E0922E8DE591E00E94470326
:100B9000892B09F450C11BA21AA21DA21CA21FA2DC
:100BA0001EA270E060E0CE0182960E9403042AA19A
:100BB0003BA181112EC02115310519F0C9010E94F8
:100BC0000E0A1BA21AA21FA21EA21DA21CA20E94F4
:100BD000F9020EA11FA197FD24C08A30910509F1E9
:100BE00089831A820F5F1F4FB801CE0182960E943F
:100BF0000304882361F32AA13BA18EA19FA1BE011A
:100C00006F5F7F4F820F931F0E94660B1FA30EA37F
:100C1000DECF1FA21EA264E371E0C9010E94660B31
:100C2000D6CFCAA0DBA0C114D10421F076010115F2
:100C3000110511F58EA19FA1892B09F41EC168E150
:100C400071E08AA19BA10E945D0B892B09F015C15F
:100C50000E944C01882351F0809100028C3009F4ED
:100C600097C008F03FC08B3009F455C060E070E0D9
:100C700080EC9FE778C0750157018FEFA81AB80A7A
:100C8000F7018081082E000C990B0E944007892BE8
:100C900091F7015011090C0D1D1DF8018081082EDE
:100CA000000C990B0E944007892B31F00E151F058F
:100CB00018F001501109F1CFA8014F5F5F4F4E1995
:100CC0005F095FA34EA3CE14DF0420F4B701C60171
:100CD0000E94540BEAA1FBA18EA19FA1E80FF91F6E
:100CE0001082A8CF8551823008F61091FC01612F47
:100CF00070E0762F662766277F778091FD01682B4D
:100D000090E080E00E9449072DEC3CEC4CEC5DE368
:100D10000E94AA0759C06091FC0170E090E080E059
:100D20000E9449076B017C011091FD0117FF0AC069
:100D3000AC019B0160E070E080E89FEB0E94A2089C
:100D40006B017C011F70612F70E090E080E00E94D9
:100D50004B072DEC3CEC4CEC5DE30E94AA07A7018D
:100D600096010E94A3080E940F096B01770FEE08FD
:100D7000FF08C701B6010E944B079B01AC010E940E
:100D80004509882329F18CE191E00E94F60349C0CE
:100D90001091FC01612F70E090E080E00E94490713
:100DA0006B017C016091FD016F7070E090E080E06C
:100DB0000E944B072DEC3CEC4CEC5DE30E94AA0733
:100DC000A70196010E94A30817FFCDCF9058CBCF63
:100DD00085E391E00E94F603F7FE39C06DE28DE5F0
:100DE00091E00E94890322273327A9012C193D098C
:100DF0004E095F0919A28E010F5D1F4FCA01B9018B
:100E0000A30192010E944A09605DF80162938F017B
:100E1000211531054105510589F7C801012B09F05C
:100E2000B4CF82E391E00E94F6038AA19BA10097D0
:100E300011F00E940E0A8114910409F4A5CE0E94BB
:100E40005303882309F4A0CE0E9400009DCEA70181
:100E5000960119A28E010F5D1F4FCA01B901A301AE
:100E600092010E944A09605DF80162938F01211589
:100E700031054105510589F7D0CF83E491E085CF55
:100E800091110C941708803219F089508550C8F7D9
:100E90000895E89409C097FB3EF49095809570956D
:100EA00061957F4F8F4F9F4F9923A9F0F92F96E9B6
:100EB000BB279395F695879577956795B795F1112B
:100EC000F8CFFAF4BB0F11F460FF1BC06F5F7F4FC8
:100ED0008F4F9F4F16C0882311F096E911C07723DA
:100EE00021F09EE8872F762F05C0662371F096E8E3
:100EF000862F70E060E02AF09A95660F771F881FB2
:100F0000DAF7880F9695879597F90895990F000855
:100F1000550FAA0BE0E8FEEF16161706E807F907CB
:100F2000C0F012161306E407F50798F0621B730B66
:100F3000840B950B39F40A2661F0232B242B252BE7
:100F400021F408950A2609F4A140A6958FEF811D8A
:100F5000811D08950E94BD070C9431080E9423084A
:100F600038F00E942A0820F0952311F00C941A08FA
:100F70000C94200811240C9465080E94420870F318
:100F8000959FC1F3950F50E0551F629FF001729F2E
:100F9000BB27F00DB11D639FAA27F00DB11DAA1F3D
:100FA000649F6627B00DA11D661F829F2227B00D8A
:100FB000A11D621F739FB00DA11D621F839FA00D15
:100FC000611D221F749F3327A00D611D231F849F65
:100FD000600D211D822F762F6A2F11249F575040BC
:100FE0009AF0F1F088234AF0EE0FFF1FBB1F661F37
:100FF000771F881F91505040A9F79E3F510580F000
:101000000C941A080C9465085F3FE4F3983ED4F3FF
:10101000869577956795B795F795E7959F5FC1F7A3
:10102000FE2B880F911D9695879597F9089599271E
:101030008827089597F99F6780E870E060E0089539
:101040009FEF80EC089500240A94161617061806E0
:101050000906089500240A941216130614060506BC
:101060000895092E0394000C11F4882352F0BB0F4D
:1010700040F4BF2B11F460FF04C06F5F7F4F8F4FB0
:101080009F4F089557FD9058440F551F59F05F3FEB
:1010900071F04795880F97FB991F61F09F3F79F09A
:1010A00087950895121613061406551FF2CF46951C
:1010B000F1DF08C0161617061806991FF1CF86959E
:1010C0007105610508940895E894BB276627772782
:1010D000CB0197F908952F923F924F925F926F92B2
:1010E0007F928F929F92AF92BF92CF92DF92EF92B8
:1010F000FF920F931F93CF93DF93CDB7DEB7CA1B39
:10110000DB0B0FB6F894DEBF0FBECDBF09942A8863
:10111000398848885F846E847D848C849B84AA840B
:10112000B984C884DF80EE80FD800C811B81AA8198
:10113000B981CE0FD11D0FB6F894DEBF0FBECDBF63
:10114000ED0108955058BB27AA270E94BA080C94B5
:1011500031080E94230838F00E942A0820F039F450
:101160009F3F19F426F40C9420080EF4E095E7FB59
:101170000C941A08E92F0E94420858F3BA17620724
:1011800073078407950720F079F4A6F50C9464089A
:101190000EF4E0950B2EBA2FA02D0B01B901900192
:1011A0000C01CA01A0011124FF27591B99F0593FD6
:1011B00050F4503E68F11A16F040A22F232F342F1E
:1011C0004427585FF3CF469537952795A795F0406C
:1011D0005395C9F77EF41F16BA0B620B730B840B81
:1011E000BAF09150A1F0FF0FBB1F661F771F881F39
:1011F000C2F70EC0BA0F621F731F841F48F4879591
:1012000077956795B795F7959E3F08F0B0CF939582
:10121000880F08F09927EE0F9795879508950E94FB
:1012200016096894B1110C94650808950E944A0843
:1012300088F09F5798F0B92F9927B751B0F0E1F097
:10124000660F771F881F991F1AF0BA95C9F714C047
:10125000B13091F00E946408B1E008950C946408E4
:10126000672F782F8827B85F39F0B93FCCF3869580
:1012700077956795B395D9F73EF4909580957095DD
:1012800061957F4F8F4F9F4F08950E948607880B6F
:10129000990B0895A1E21A2EAA1BBB1BFD010DC0DC
:1012A000AA1FBB1FEE1FFF1FA217B307E407F50716
:1012B00020F0A21BB30BE40BF50B661F771F881FF2
:1012C000991F1A9469F760957095809590959B0188
:1012D000AC01BD01CF010895EE0FFF1F0590F49101
:1012E000E02D09940F931F93CF93DF9382309105E4
:1012F00010F482E090E0E0910F02F091100230E0F3
:1013000020E0B0E0A0E0309799F42115310509F410
:101310004AC0281B390B24303105D8F58A819B81BE
:101320006115710589F1FB0193838283FE0111C070
:10133000408151810281138148175907E0F0481715
:10134000590799F4109761F012960C93129713961F
:101350001C933296CF01DF91CF911F910F91089589
:1013600000930F0210931002F4CF2115310551F0B4
:101370004217530738F0A901DB019A01BD01DF01D3
:10138000F801C1CFEF01F9CF9093100280930F02C3
:10139000CDCFFE01E20FF31F8193919322503109CB
:1013A00039832883D7CF20910D0230910E02232B51
:1013B00041F4209102013091030130930E022093F9
:1013C0000D0220910001309101012115310541F4F8
:1013D0002DB73EB74091040150910501241B350BF8
:1013E000E0910D02F0910E02E217F307A0F42E1B1C
:1013F0003F0B2817390778F0AC014E5F5F4F241779
:10140000350748F04E0F5F1F50930E0240930D02B8
:10141000819391939FCFF0E0E0E09CCFCF93DF9357
:101420000097E9F0FC01329713821282A0910F021B
:10143000B0911002ED0130E020E01097A1F420817E
:101440003181820F931F20910D0230910E022817D7
:10145000390709F061C0F0930E02E0930D02DF91AD
:10146000CF910895EA01CE17DF07E8F54A815B8145
:101470009E0141155105B1F7E901FB83EA834991CA
:101480005991C40FD51FEC17FD0761F4808191813C
:101490000296840F951FE901998388838281938145
:1014A0009B838A83F0E0E0E012968D919C911397E4
:1014B0000097B9F52D913C911197CD010296820FBD
:1014C000931F20910D0230910E022817390739F62B
:1014D000309751F51092100210920F02B0930E0245
:1014E000A0930D02BCCFD383C28340815181840F6E
:1014F000951FC817D90761F44E5F5F4F88819981A6
:10150000480F591F518340838A819B819383828333
:101510002115310509F0B0CFF0931002E0930F02CE
:101520009ECFFD01DC01C0CF13821282D7CFB0E085
:10153000A0E0EDE9FAE00C946D088C01009751F4FD
:10154000CB010E9472098C01C801CDB7DEB7E0E182
:101550000C948908FC01E60FF71F9C012250310909
:10156000E217F30708F49DC0D901CD91DC911197E2
:10157000C617D70798F0C530D10530F3CE010497D0
:101580008617970708F3C61BD70B2297C193D193F1
:101590006D937C93CF010E940E0AD6CF5B01AC1AEB
:1015A000BD0A4C018C0E9D1EA0910F02B09110023D
:1015B000512C412CF12CE12C109731F580910D022A
:1015C00090910E028815990509F05CC046165706E1
:1015D00008F058C08091000190910101009741F4FA
:1015E0008DB79EB74091040150910501841B950B66
:1015F000E817F90708F055C0F0930E02E0930D02CA
:10160000F90171836083A0CF8D919C9111971296FF
:101610006C90129713967C901397A815B90559F5FD
:101620006C0142E0C40ED11CCA14DB0420F1AC01F1
:101630004A195B09DA011296159780F0628273826B
:1016400051834083D9016D937C93E114F10471F0CF
:10165000D7011396FC93EE93129776CF22968C0FB8
:101660009D1FF90191838083F301EFCFF093100266
:10167000E0930F0269CF4816590608F42C017D014A
:10168000D3019ACFCB010E9472097C01009749F0E7
:10169000AE01B8010E94540BC8010E940E0A8701D6
:1016A00053CF10E000E050CFFB01DC0102C00190FD
:1016B0000D9241505040D8F70895FB01DC018D9107
:1016C000019080190110D9F3990B0895FB01DC01F9
:0E16D00001900D920020E1F70895F894FFCFED
:1016DE00000011028000000000008903A902D6025A
:1016EE00D6034703E5023903474554004572726F2E
:1016FE00722072656164696E672073656E736F72B6
:10170E0021000D0A0054656D706572617475726505
:10171E003A2000556E6B6E6F776E20636F6D6D6144
:04172E006E640000E5
:00000001FF
