:100000000C9462000C948A000C948A000C948A0070
:100010000C948A000C948A000C948A000C948A0038
:100020000C948A000C948A000C948A000C948A0028
:100030000C948A000C948A000C948A000C948A0018
:100040000C94B6030C948A000C9426040C940004BF
:100050000C948A000C948A000C948A000C948A00F8
:100060000C948A000C948A000000000024002700F1
:100070002A0000000000250028002B0000000008D6
:10008000000201000003040700000000000000005F
:1000900000000000230026002900040404040404D6
:1000A0000404020202020202030303030303010227
:1000B00004081020408001020408102001020408F6
:1000C0001020580411241FBECFEFD8E0DEBFCDBFF3
:1000D00011E0A0E0B1E0E4E6FFE002C005900D927F
:1000E000A631B107D9F721E0A6E1B1E001C01D9228
:1000F000AF3CB207E1F710E0C2E6D0E004C02197C0
:10010000FE010E94AA07C136D107C9F70E94A504C3
:100110000C94B0070C940000CF92DF92EF92FF9204
:10012000CF93DF93B091C301A0E08111AB2F8091F9
:10013000C40190E0880F991FAC0140575F4FC090F9
:10014000C901D090CA01E090CB01F090CC0130E021
:1001500020E0FA01C591D491E881B90190E080E0F6
:10016000EB23EA130AC02F5F3F4F6C157D058E0508
:100170009F0578F36FEF7FEFCB01DF91CF91FF9079
:10018000EF90DF90CF900895FC01538D448D252F83
:1001900030E0842F90E0821B930B541710F0CF9621
:1001A000089501970895FC01918D828D981761F053
:1001B000A28DAE0FBF2FB11D5D968C91928D9F5F6A
:1001C0009F73928F90E008958FEF9FEF0895FC0149
:1001D000918D828D981731F0828DE80FF11D858DFC
:1001E00090E008958FEF9FEF0895FC01918D228D8F
:1001F000892F90E0805C9F4F821B91098F73992714
:100200000895FC01A48DA80FB92FB11DA35ABF4FAB
:100210002C91848D90E001968F739927848FA68905
:10022000B7892C93A089B1898C91837080648C9359
:10023000938D848D981306C00288F389E02D808108
:100240008F7D80830895EF92FF920F931F93CF933A
:10025000DF93EC0181E0888F9B8D8C8D98131AC001
:10026000E889F989808185FF15C09FB7F894EE89E8
:10027000FF896083E889F989808183708064808345
:100280009FBF81E090E0DF91CF911F910F91FF9090
:10029000EF900895F62E0B8D10E00F5F1F4F0F7338
:1002A0001127E02E8C8D8E110CC00FB607FCFACFF3
:1002B000E889F989808185FFF5CFCE010E9401018F
:1002C000F1CFEB8DEC0FFD2FF11DE35AFF4FF082C4
:1002D0009FB7F8940B8FEA89FB8980818062CFCF2A
:1002E000CF93DF93EC01888D8823B9F0AA89BB896D
:1002F000E889F9898C9185FD03C0808186FD0DC058
:100300000FB607FCF7CF8C9185FFF2CF808185FF78
:10031000EDCFCE010E940101E9CFDF91CF91089589
:100320008FE191E00E94F50021E0892B09F420E0A3
:10033000822F089580E090E0892B29F00E9490019F
:1003400081110C9400000895CF93DF9390E0FC019D
:10035000E255FF4F249186569F4FFC0184918823DC
:10036000D1F090E0880F991FFC01E859FF4FA5914B
:10037000B491FC01EE58FF4FC591D491623071F4F5
:100380009FB7F8943C91822F809583238C93E881CA
:100390002E2B28839FBFDF91CF9108958FB7F894BC
:1003A000EC912E2B2C938FBFF6CF3FB7F894809112
:1003B000170190911801A0911901B0911A0126B569
:1003C000A89B05C02F3F19F00196A11DB11D3FBF8D
:1003D000BA2FA92F982F8827BC01CD01620F711D5C
:1003E000811D911D42E0660F771F881F991F4A9556
:1003F000D1F708958F929F92AF92BF92CF92DF92E2
:10040000EF92FF924B015C010E94D5016B017C01D0
:100410000E94D5016C197D098E099F09683E7340C1
:1004200081059105A8F321E0821A9108A108B1087D
:1004300088EEC80E83E0D81EE11CF11C81149104E3
:10044000A104B10429F7FF90EF90DF90CF90BF9007
:10045000AF909F908F9008958F929F92AF92BF928E
:10046000EF92FF920F931F93CF93DF93CDB7DEB739
:10047000C054D1400FB6F894DEBF0FBECDBF2FB72A
:10048000F89480911B0190911C01A0911D01B091E5
:100490001E012FBF4091C5015091C6016091C70157
:1004A0007091C8018C019D01041B150B260B370BA5
:1004B000B901A801403D574061057105A0F4809144
:1004C000CD01C05CDE4F0FB6F894DEBF0FBECDBFCE
:1004D000DF91CF911F910F91FF90EF90BF90AF9060
:1004E0009F908F9008958093C5019093C601A0932B
:1004F000C701B093C8011092C0011092BF011092C1
:10050000BE011092BD011092BC0162E08091C10158
:100510000E94A40161E070E080E090E00E94FA0196
:1005200061E08091C1010E94A4018091C10190E02D
:10053000FC01E458FF4F2491FC01E255FF4F349138
:10054000FC01E656FF4FE491EE23D9F0222359F047
:10055000233009F44BC008F03EC0213009F44CC0F0
:10056000223009F44DC0F0E0EE0FFF1FEE58FF4FB0
:10057000A591B4918FB7F894EC9130953E233C93BC
:100580008FBF8091C2018551823008F046C08BE256
:1005900091E10197F1F762E08091C1010E94A4010D
:1005A0008091CE0190E08230910538F0880F991F3C
:1005B000880F991F05970197F1F7F89480E00E9442
:1005C0008C006F3F7F4F8F4F9F4F71F51092CD0181
:1005D000789480E076CF2730B1F02830D1F0243005
:1005E00009F0C1CF809180008F7D03C08091800091
:1005F0008F7780938000B7CF84B58F7784BDB3CFDA
:1006000084B58F7DFBCF8091B0008F778093B00051
:10061000AACF8091B0008F7DF9CF64E170E080E0D7
:1006200090E00E94FA01B7CF81E00E948C006F3FFA
:100630007F4F8F4F9F4F51F2CE0101967C015E019B
:100640009FEBA91A9EEFB90A870180E00E948C00F7
:10065000F801608371838283938381E00E948C0020
:10066000F8016483758386839783085F1F4FA01604
:10067000B10659F7789430E020E0F701808091804E
:10068000A280B3804481558166817781FFEF8F1608
:100690009F06AF06BF0631F04F3F0FEF50076007D0
:1006A000700719F41092CD0194CFF90183E0F5950C
:1006B000E7958A95E1F7E454FE4F8081880F841610
:1006C0009506A606B70618F180832F5F3F4F18E006
:1006D000E10EF11C2832310581F64091C0012091D4
:1006E000BC018091BD01280F3327331F8091BE01CB
:1006F000280F311D8091BF01820F932F911D9927E3
:100700004817190679F681E08093CD01DACE816031
:10071000DBCFAF92BF92CF92DF92EF92FF920F9317
:100720001F93CF93DF936C017B018B01040F151F87
:10073000EB015E01AE18BF08C017D10759F06991EF
:10074000D601ED91FC910190F081E02DC601099553
:10075000892B79F7C501DF91CF911F910F91FF9000
:10076000EF90DF90CF90BF90AF9008951F920F92BF
:100770000FB60F9211242F933F938F939F93AF93B4
:10078000BF9380911B0190911C01A0911D01B0911C
:100790001E013091160123E0230F2D3758F50196E5
:1007A000A11DB11D2093160180931B0190931C0184
:1007B000A0931D01B0931E01809117019091180123
:1007C000A0911901B0911A010196A11DB11D80934C
:1007D000170190931801A0931901B0931A01BF91CA
:1007E000AF919F918F913F912F910F900FBE0F90DE
:1007F0001F90189526E8230F0296A11DB11DD2CF98
:100800001F920F920FB60F9211242F933F934F9385
:100810005F936F937F938F939F93AF93BF93EF9368
:10082000FF938FE191E00E940101FF91EF91BF9151
:10083000AF919F918F917F916F915F914F913F9178
:100840002F910F900FBE0F901F9018951F920F922F
:100850000FB60F9211242F938F939F93EF93FF93D3
:10086000E0912F01F09130018081E0913501F0910C
:10087000360182FD1BC09081809138018F5F8F739C
:1008800020913901821741F0E0913801F0E0E15EFA
:10089000FE4F958F80933801FF91EF919F918F913B
:1008A0002F910F900FBE0F901F9018958081F4CF5D
:1008B000EFE1F1E01382128288EE93E0A0E0B0E075
:1008C00084839583A683B78384E091E091838083BA
:1008D00085EC90E09587848784EC90E09787868705
:1008E00080EC90E0918B808B81EC90E0938B828BFD
:1008F00082EC90E0958B848B86EC90E0978B868BD6
:10090000118E128E138E148EACEBB1E082E0159630
:100910008C93159786E116968C931697E0EBF0E092
:10092000E4911796EC931797ECE9F0E0E4911896B0
:10093000EC93189740E85EE360E070E01D964D93FD
:100940005D936D937C9350970895CF93DF93CDB7CC
:10095000DEB7A1970FB6F894DEBF0FBECDBF789477
:1009600084B5826084BD84B5816084BD85B58260B4
:1009700085BD85B5816085BD80916E008160809365
:100980006E001092810080918100826080938100CE
:1009900080918100816080938100809180008160DE
:1009A000809380008091B10084608093B100809139
:1009B000B00081608093B00080917A008460809361
:1009C0007A0080917A00826080937A0080917A0028
:1009D000816080937A0080917A00806880937A00A9
:1009E0001092C10062E08091C1010E94A4012FB762
:1009F000F89480911B0190911C01A0911D01B09170
:100A00001E012FBF805D9740A109B1098093C501E8
:100A10009093C601A093C701B093C80187E3809368
:100A2000CE019AE0892E912CA12CB12C00E010E08F
:100A30000E942C02882341F08091C2018C3009F47D
:100A400093C038F48B30F1F060E070E080EC9FE709
:100A500041C085518230C0F7F090BE016F2D70E02B
:100A6000762F662766277F778091BF01682B90E0FD
:100A700080E00E948D062DEC3CEC4CEC5DE30E9486
:100A80001B078EC06091BE0170E090E080E00E9484
:100A90008D062B013C01F090BF01F7FE0AC0AC01AE
:100AA0009B0160E070E080E89FEB0E94EA052B016B
:100AB0003C016F2D6F7070E090E080E00E948F0627
:100AC0002DEC3CEC4CEC5DE30E941B07A301920172
:100AD0000E94EB050E9457066B01770FEE08FF0896
:100AE000F7FE62C06DE28FE191E00E9423012227B0
:100AF0003327A9012C193D094E095F0919A2CE011E
:100B000081967C01CA01B901A50194010E94880760
:100B1000605DF70162937F012115310541055105A3
:100B200089F7E114F10461F001900020E9F73197B1
:100B3000AF014E195F09B7018FE191E00E9489036F
:100B400042E050E062E171E08FE191E00E948903B0
:100B50000115110509F46CCF0E949001882309F456
:100B600067CF0E94000064CFF090BE016F2D70E04F
:100B700090E080E00E948D062B013C016091BF0156
:100B80006F7070E090E080E00E948F062DEC3CECEE
:100B90004CEC5DE30E941B07A30192010E94EB0550
:100BA000F7FE98CF905896CFA701960119A2CE01D3
:100BB00081967C01CA01B901A50194010E948807B0
:100BC000605DF70162937F012115310541055105F3
:100BD00089F7A7CF5058BB27AA270E9402060C947A
:100BE000E1060E94D30638F00E94DA0620F039F4BC
:100BF0009F3F19F426F40C94D0060EF4E095E7FB21
:100C00000C94CA06E92F0E94F20658F3BA1762073D
:100C100073078407950720F079F4A6F50C94140760
:100C20000EF4E0950B2EBA2FA02D0B01B901900107
:100C30000C01CA01A0011124FF27591B99F0593F4B
:100C400050F4503E68F11A16F040A22F232F342F93
:100C50004427585FF3CF469537952795A795F040E1
:100C60005395C9F77EF41F16BA0B620B730B840BF6
:100C7000BAF09150A1F0FF0FBB1F661F771F881FAE
:100C8000C2F70EC0BA0F621F731F841F48F4879506
:100C900077956795B795F7959E3F08F0B0CF9395F8
:100CA000880F08F09927EE0F9795879508950E9471
:100CB0005E066894B1110C94150708950E94FA0617
:100CC00088F09F5798F0B92F9927B751B0F0E1F00D
:100CD000660F771F881F991F1AF0BA95C9F714C0BD
:100CE000B13091F00E941407B1E008950C941407FC
:100CF000672F782F8827B85F39F0B93FCCF38695F6
:100D000077956795B395D9F73EF490958095709552
:100D100061957F4F8F4F9F4F0895E89409C097FBCF
:100D20003EF490958095709561957F4F8F4F9F4FC2
:100D30009923A9F0F92F96E9BB279395F695879506
:100D400077956795B795F111F8CFFAF4BB0F11F4C9
:100D500060FF1BC06F5F7F4F8F4F9F4F16C0882370
:100D600011F096E911C0772321F09EE8872F762FA6
:100D700005C0662371F096E8862F70E060E02AF0E7
:100D80009A95660F771F881FDAF7880F96958795D3
:100D900097F9089597F99F6780E870E060E00895FB
:100DA0009FEF80EC089500240A9416161706180683
:100DB0000906089500240A9412161306140605065F
:100DC0000895092E0394000C11F4882352F0BB0FF0
:100DD00040F4BF2B11F460FF04C06F5F7F4F8F4F53
:100DE0009F4F089557FD9058440F551F59F05F3F8E
:100DF00071F04795880F97FB991F61F09F3F79F03D
:100E000087950895121613061406551FF2CF4695BE
:100E1000F1DF08C0161617061806991FF1CF869540
:100E20007105610508940895E894BB276627772724
:100E3000CB0197F908950E942E070C94E1060E94B9
:100E4000D30638F00E94DA0620F0952311F00C94B6
:100E5000CA060C94D00611240C9415070E94F206C1
:100E600070F3959FC1F3950F50E0551F629FF001FD
:100E7000729FBB27F00DB11D639FAA27F00DB11D16
:100E8000AA1F649F6627B00DA11D661F829F22279F
:100E9000B00DA11D621F739FB00DA11D621F839F26
:100EA000A00D611D221F749F3327A00D611D231FFC
:100EB000849F600D211D822F762F6A2F11249F574A
:100EC00050409AF0F1F088234AF0EE0FFF1FBB1F4D
:100ED000661F771F881F91505040A9F79E3F51050C
:100EE00080F00C94CA060C9415075F3FE4F3983E1B
:100EF000D4F3869577956795B795F795E7959F5FB6
:100F0000C1F7FE2B880F911D9695879597F9089547
:100F1000A1E21A2EAA1BBB1BFD010DC0AA1FBB1FFD
:100F2000EE1FFF1FA217B307E407F50720F0A21B6F
:100F3000B30BE40BF50B661F771F881F991F1A94DC
:100F400069F760957095809590959B01AC01BD0106
:100F5000CF010895EE0FFF1F0590F491E02D099445
:040F6000F894FFCF33
:100F64000000000023018903C4007001F500D300D0
:060F7400E7000D0A000079
:00000001FF
