:100000000C9483000C94B4000C94B4000C94B400D1
:100010000C94B4000C94B4000C94B4000C94B40090
:100020000C94B4000C94B4000C94B4000C94B40080
:100030000C94B4000C94B4000C94B4000C94B40070
:100040000C94B4000C94B4000C94B4000C94B40060
:100050000C94B4000C94B4000C94B4000C941504EB
:100060000C94B4000C9485050C945B050C94B400BE
:100070000C94B4000C94B4000C94B4000C94B40030
:100080000C94B4000C94B4000C94B4000C94B40020
:100090000C9431050C9407050C94B4000C94B40036
:1000A0000C94B4000C94B4000C94B4000C94B40000
:1000B0000C94B4000C94B4000C94B4000C94B400F0
:1000C0000C94B4000C94B4000C94B4000C94DD04B3
:1000D0000C94B3040C94B4000C9489040C945F0445
:1000E0000C94B4000C94B1010C9402010C945402D1
:1000F0000C94AF050C9457010C9448010C946B01BF
:100100000C940702AF0511241FBECFEFD1E2DEBF72
:10011000CDBF00E00CBF24E0A6E4B2E001C01D9218
:10012000AD3CB207E1F712E0A0E0B2E0EEE1F4E1AD
:1001300000E00BBF02C007900D92A634B107D9F7BB
:1001400010E0C3E8D0E000E006C021970109802F4D
:10015000FE010E94EF07C238D10780E00807A9F727
:100160000E944E060C940D0A0C940000FC01A0891C
:10017000B18982E08C93A485B5851C92A685B7854C
:100180008FEC8C93108EA489B58986E08C93A2891C
:10019000B3898C9180618C93A289B3898C9188609A
:1001A0008C93A289B3898C9180688C930288F3899F
:1001B000E02D80818F7D808308953FB7F8948091F2
:1001C0004D0290914E02A0914F02B091500226B57F
:1001D000A89B05C02F3F19F00196A11DB11D3FBF7F
:1001E000BA2FA92F982F8827BC01CD01620F711D4E
:1001F000811D911D42E0660F771F881F991F4A9548
:10020000D1F70895AF92BF92CF92DF92EF92FF9213
:100210000F931F93CF93DF936C017B018B01040F2E
:10022000151FEB015E01AE18BF08C017D10759F0CA
:100230006991D601ED91FC910190F081E02DC6010C
:100240001995892B79F7C501DF91CF911F910F91F6
:10025000FF90EF90DF90CF90BF90AF900895FC019A
:10026000A089B1898C91A689B78982FD0FC09C9124
:10027000818D8F5F8F73228D821749F0A18DAE0F14
:10028000BF2FB11D5D969C93818F08958C91089529
:10029000FC01538D448D252F30E0842F90E0821B8C
:1002A000930B541710F0CF96089501970895FC0111
:1002B000918D828D981761F0A28DAE0FBF2FB11D69
:1002C0005D968C91928D9F5F9F73928F90E00895C1
:1002D0008FEF9FEF0895FC01918D828D981731F07B
:1002E000828DE80FF11D858D90E008958FEF9FEFCF
:1002F0000895CF93DF93EC012FB7F89480915102CA
:1003000090915202A0915302B09154022FBF88875E
:100310009987AA87BB87CE010E946B0197FF1EC0F9
:100320002FB7F8948091510290915202A0915302FC
:10033000B09154022FBF488559856A857B85841BFF
:10034000950BA60BB70B4C815D816E817F81841765
:100350009507A607B707F8F28FEF9FEFDF91CF91D0
:100360000895FC01918D228D892F90E0805C9F4F34
:10037000821B91098F739927089585E592E00E9469
:10038000B10121E0892B09F420E0822F089582EF4A
:1003900092E00E94B10121E0892B09F420E0822F34
:1003A00008958FE893E00E94B10121E0892B09F4C0
:1003B00020E0822F08958CE294E00E94B10121E0B8
:1003C000892B09F420E0822F0895FC01A48DA80F49
:1003D000B92FB11DA35ABF4F2C91848D90E0019687
:1003E0008F739927848FA689B7892C93A089B189A7
:1003F0008C91837080648C93938D848D981306C048
:100400000288F389E02D80818F7D80830895EF92AB
:10041000FF920F931F93CF93DF93EC0181E0888FBE
:100420009B8D8C8D98131AC0E889F989808185FF8E
:1004300015C09FB7F894EE89FF896083E889F98930
:1004400080818370806480839FBF81E090E0DF9132
:10045000CF911F910F91FF90EF900895F62E0B8D85
:1004600010E00F5F1F4F0F731127E02E8C8D8E1140
:100470000CC00FB607FCFACFE889F989808185FFA7
:10048000F5CFCE010E94E501F1CFEB8DEC0FFD2FF2
:10049000F11DE35AFF4FF0829FB7F8940B8FEA8962
:1004A000FB8980818062CFCFCF93DF93EC01888D71
:1004B0008823B9F0AA89BB89E889F9898C9185FDDF
:1004C00003C0808186FD0DC00FB607FCF7CF8C916D
:1004D00085FFF2CF808185FFEDCFCE010E94E5013F
:1004E000E9CFDF91CF91089580E090E0892B29F04A
:1004F0000E94DB0181110E94000080E090E0892BC6
:1005000029F00E94D10181110E94000080E090E05A
:10051000892B29F00E94C70181110E94000080E010
:1005200090E0892B29F00E94BD0181110C940000FC
:100530000895FB0101900020E9F73197AF01461BB8
:10054000570B0C9402010F931F93CF93DF93EC0191
:100550000E9499028C0168E172E0CE010E9499022A
:10056000800F911FDF91CF911F910F9108958F926E
:100570009F92AF92BF92CF92DF92EF92FF920F9332
:100580001F93CF93DF93CDB7DEB7A1970FB6F89443
:10059000DEBF0FBECDBF6C01990FEE08FF08F7FE5E
:1005A0004BC06DE28CE294E00E9407028C0122278E
:1005B0003327A9012C193D094E095F0919A2CE0163
:1005C00081967C019AE0892E912CA12CB12CCA0134
:1005D000B901A50194010E94B907605DF70162931A
:1005E0007F01211531054105510589F790E080E033
:1005F000309729F0BF018CE294E00E949902080F25
:10060000191F68E172E08CE294E00E949902800F69
:10061000911FA1960FB6F894DEBF0FBECDBFDF913C
:10062000CF911F910F91FF90EF90DF90CF90BF90EF
:10063000AF909F908F900895A701960119A28E0107
:100640000F5D1F4F8AE0C82ED12CE12CF12CCA017E
:10065000B901A70196010E94B907605DF801629394
:100660008F01211531054105510589F7309739F082
:10067000BF018CE294E00E9499028C01C2CF10E08D
:1006800000E0BFCFAF92BF92CF92DF92EF92FF9286
:100690000F931F93CF93DF93EC018B010E94B10165
:1006A0005C01892B09F459C0CE010E947901FC013B
:1006B00097FD66C08D32910521F0C0970A9708F02A
:1006C00058C0C12CD12C7601B12CE130F105D9F004
:1006D000ED32F10509F451C0CF01C0970A9798F4A3
:1006E000AAE0B0E0A70196010E948B076F01FF0FFF
:1006F000EE08FF08C60ED71EE81EF91E80E3C81AD2
:10070000D108E108F108CE010E945701CE010E94F4
:100710007901FC01C0970A97C0F2E130F105A9F216
:10072000BB2041F0F094E094D094C094C11CD11C43
:10073000E11CF11C5601F8014481558160817181F1
:100740008CE294E00E9402016BE172E08CE294E0A2
:100750000E949902C6010E94B702C501DF91CF91A4
:100760001F910F91FF90EF90DF90CF90BF90AF90CF
:100770000895CE010E94570197CFBB24B394C3CFF5
:10078000C12CD12C7601D6CFFC01808191810097BC
:1007900011F00C9493080895EF92FF920F931F931A
:1007A000CF93DF93EC017B01198218821B821A829E
:1007B0001D821C82FB0101900020E9F731978F0117
:1007C000061B170BB8016F5F7F4F90E080E00E941F
:1007D0001C090097B9F0998388831B830A832C81B5
:1007E0003D81232B11F4FC0110821D830C83B70182
:1007F00088819981DF91CF911F910F91FF90EF90A8
:100800000C94060A88819981009711F00E94930840
:10081000198218821D821C821B821A82DF91CF915D
:100820001F910F91FF90EF9008951F920F920FB6B6
:100830000F9211242F933F938F939F93AF93BF9366
:100840008091510290915202A0915302B0915402B2
:1008500030914C0223E0230F2D3758F50196A11D4E
:10086000B11D20934C028093510290935202A093A9
:100870005302B093540280914D0290914E02A09188
:100880004F02B09150020196A11DB11D80934D02FF
:1008900090934E02A0934F02B0935002BF91AF913C
:1008A0009F918F913F912F910F900FBE0F901F90AE
:1008B000189526E8230F0296A11DB11DD2CF1F92D5
:1008C0000F920FB60F9211240BB60F922F933F93F6
:1008D0004F935F936F937F938F939F93AF93BF9348
:1008E000EF93FF9385E592E00E94E501FF91EF9180
:1008F000BF91AF919F918F917F916F915F914F9138
:100900003F912F910F900BBE0F900FBE0F901F9035
:1009100018951F920F920FB60F9211240BB60F92DB
:100920002F933F934F935F936F937F938F939F93F7
:10093000AF93BF93EF93FF9385E592E00E942F0161
:10094000FF91EF91BF91AF919F918F917F916F91A7
:100950005F914F913F912F910F900BBE0F900FBE63
:100960000F901F9018951F920F920FB60F9211249F
:100970000BB60F922F933F934F935F936F937F9399
:100980008F939F93AF93BF93EF93FF9382EF92E088
:100990000E94E501FF91EF91BF91AF919F918F91DF
:1009A0007F916F915F914F913F912F910F900BBE6F
:1009B0000F900FBE0F901F9018951F920F920FB6B9
:1009C0000F9211240BB60F922F933F934F935F9387
:1009D0006F937F938F939F93AF93BF93EF93FF9307
:1009E00082EF92E00E942F01FF91EF91BF91AF91B2
:1009F0009F918F917F916F915F914F913F912F9137
:100A00000F900BBE0F900FBE0F901F9018951F9266
:100A10000F920FB60F9211240BB60F922F933F93A4
:100A20004F935F936F937F938F939F93AF93BF93F6
:100A3000EF93FF938FE893E00E94E501FF91EF9120
:100A4000BF91AF919F918F917F916F915F914F91E6
:100A50003F912F910F900BBE0F900FBE0F901F90E4
:100A600018951F920F920FB60F9211240BB60F928A
:100A70002F933F934F935F936F937F938F939F93A6
:100A8000AF93BF93EF93FF938FE893E00E942F0102
:100A9000FF91EF91BF91AF919F918F917F916F9156
:100AA0005F914F913F912F910F900BBE0F900FBE12
:100AB0000F901F9018951F920F920FB60F9211244E
:100AC0000BB60F922F933F934F935F936F937F9348
:100AD0008F939F93AF93BF93EF93FF938CE294E038
:100AE0000E94E501FF91EF91BF91AF919F918F918E
:100AF0007F916F915F914F913F912F910F900BBE1E
:100B00000F900FBE0F901F9018951F920F920FB667
:100B10000F9211240BB60F922F933F934F935F9335
:100B20006F937F938F939F93AF93BF93EF93FF93B5
:100B30008CE294E00E942F01FF91EF91BF91AF9161
:100B40009F918F917F916F915F914F913F912F91E5
:100B50000F900BBE0F900FBE0F901F901895E5E5FC
:100B6000F2E01382128248EE53E060E070E04483CA
:100B70005583668377838AE092E09183808325E3BF
:100B800031E03587248724E331E03787268720E367
:100B900031E0318B208B21E331E0338B228B22E358
:100BA00031E0358B248B26E331E0378B268B118E99
:100BB000128E138E148EE2EFF2E0138212824483BF
:100BC0005583668377839183808325ED30E0358775
:100BD000248724ED30E03787268720ED30E0318B05
:100BE000208B21ED30E0338B228B22ED30E0358BF2
:100BF000248B26ED30E0378B268B118E128E138ED0
:100C0000148EEFE8F3E013821282448355836683E7
:100C10007783918380832DEC30E0358724872CEC1B
:100C200030E03787268728EC30E0318B208B29ECA9
:100C300030E0338B228B2AEC30E0358B248B2EEC8A
:100C400030E0378B268B118E128E138E148EECE2D1
:100C5000F4E0138212824483558366837783918301
:100C6000808385EC90E09587848784EC90E097877B
:100C7000868780EC90E0918B808B81EC90E0938B69
:100C8000828B82EC90E0958B848B86EC90E0978B46
:100C9000868B118E128E138E148E0895CF93DF9350
:100CA00000D000D0CDB7DEB7789484B5826084BD23
:100CB00084B5816084BD85B5826085BD85B5816060
:100CC00085BD80916E00816080936E0010928100DE
:100CD0008091810082608093810080918100816099
:100CE000809381008091800081608093800080915A
:100CF000B10084608093B1008091B00081608093E6
:100D0000B000809191008260809391008091910069
:100D10008160809391008091900081608093900029
:100D20008091A10082608093A1008091A1008160E8
:100D30008093A1008091A00081608093A0008091A9
:100D40002101826080932101809121018160809343
:100D500021018091200181608093200180917A009F
:100D6000846080937A0080917A00826080937A0018
:100D700080917A00816080937A0080917A00806807
:100D800080937A001092C1008CE294E00E94B60039
:100D90008FE893E00E94B60082EF92E00E94B600D6
:100DA00085E592E00E94B60093E0E92EF12C60E226
:100DB00072E08CE294E00E94A30260E272E08FE8AD
:100DC00093E00E94A30260E272E082EF92E00E9450
:100DD000A30260E272E085E592E00E94A3020E9415
:100DE000DD002B013C0188EE882E83E0982EA12C9B
:100DF000B12C0E94DD006419750986099709683EC7
:100E0000734081059105A8F321E0821A9108A10899
:100E1000B10888EE480E83E0581E611C711C8114D5
:100E20009104A104B10429F764E272E0CE010196B5
:100E30000E94CC03BE016F5F7F4F8FE893E00E945A
:100E4000420390934B0280934A02CE0101960E9486
:100E5000C4036CE272E0CE0101960E94CC03BE0195
:100E60006F5F7F4F82EF92E00E94420390934902AE
:100E700080934802CE0101960E94C40364E372E0AD
:100E8000CE0101960E94CC03BE016F5F7F4F85E5C6
:100E900092E00E9442039093470280934602CE0163
:100EA00001960E94C4036CE372E08CE294E00E941D
:100EB000A30280914A0290914B020E94B702809156
:100EC0004802909149020E94B70280914602909197
:100ED00047020E94B70200914A0210914B02809192
:100EE000480290914902080F191F80914602909183
:100EF0004702080F191F61E472E08CE294E00E943F
:100F0000A302C801B7010E94A507CB010E94B70246
:100F10000E9474024CCF0E949607A59F900DB49F2B
:100F2000900DA49F800D911D11240895A29FB001E2
:100F3000B39FC001A39F700D811D1124911DB29F0D
:100F4000700D811D1124911D089597FB072E16F435
:100F5000009407D077FD09D00E94DB0707FC05D07D
:100F60003EF4909581959F4F0895709561957F4FC0
:100F70000895A1E21A2EAA1BBB1BFD010DC0AA1FDA
:100F8000BB1FEE1FFF1FA217B307E407F50720F0F2
:100F9000A21BB30BE40BF50B661F771F881F991F6D
:100FA0001A9469F760957095809590959B01AC01B6
:100FB000BD01CF010895AA1BBB1B51E107C0AA1FA9
:100FC000BB1FA617B70710F0A61BB70B881F991FEA
:100FD0005A95A9F780959095BC01CD010895EE0F23
:100FE000FF1F881F8BBF0790F691E02D19940F9378
:100FF0001F93CF93DF938230910510F482E090E04D
:10100000E091CB04F091CC0430E020E0B0E0A0E02F
:10101000309799F42115310509F44AC0281B390B82
:1010200024303105D8F58A819B816115710589F1DC
:10103000FB0193838283FE0111C0408151810281B3
:10104000138148175907E0F04817590799F410978A
:1010500061F012960C93129713961C933296CF015F
:10106000DF91CF911F910F9108950093CB041093BE
:10107000CC04F4CF2115310551F04217530738F055
:10108000A901DB019A01BD01DF01F801C1CFEF0128
:10109000F9CF9093CC048093CB04CDCFFE01E20F27
:1010A000F31F819391932250310939832883D7CF3D
:1010B0002091C9043091CA04232B41F420910202EB
:1010C000309103023093CA042093C9042091000296
:1010D000309101022115310541F42DB73EB7409101
:1010E000040250910502241B350BE091C904F091D4
:1010F000CA04E217F307A0F42E1B3F0B2817390789
:1011000078F0AC014E5F5F4F2417350748F04E0F63
:101110005F1F5093CA044093C904819391939FCF5A
:10112000F0E0E0E09CCFCF93DF930097E9F0FC0183
:10113000329713821282A091CB04B091CC04ED01BE
:1011400030E020E01097A1F420813181820F931FBD
:101150002091C9043091CA042817390709F061C0E9
:10116000F093CA04E093C904DF91CF910895EA0196
:10117000CE17DF07E8F54A815B819E0141155105D5
:10118000B1F7E901FB83EA8349915991C40FD51F57
:10119000EC17FD0761F4808191810296840F951F01
:1011A000E90199838883828193819B838A83F0E01C
:1011B000E0E012968D919C9113970097B9F52D91CF
:1011C0003C911197CD010296820F931F2091C90483
:1011D0003091CA042817390739F6309751F5109223
:1011E000CC041092CB04B093CA04A093C904BCCF22
:1011F000D383C28340815181840F951FC817D907BB
:1012000061F44E5F5F4F88819981480F591F518368
:1012100040838A819B81938382832115310509F064
:10122000B0CFF093CC04E093CB049ECFFD01DC0162
:10123000C0CF13821282D7CF4F925F926F927F926C
:101240008F929F92AF92BF92CF92DF92EF92FF92D6
:101250000F931F93CF93DF938C01009799F4CB01E9
:10126000DF91CF911F910F91FF90EF90DF90CF9082
:10127000BF90AF909F908F907F906F905F904F90B6
:101280000C94F707FC01E60FF71F9C01225031096F
:10129000E217F30708F4AEC0D901CD91DC911197A4
:1012A000C617D70720F1C530D10578F0CE010497D5
:1012B0008617970750F0C61BD70B2297C193D1937F
:1012C0006D937C93CF010E949308C801DF91CF9169
:1012D0001F910F91FF90EF90DF90CF90BF90AF9054
:1012E0009F908F907F906F905F904F9008955B01DB
:1012F000AC1ABD0A4C018C0E9D1EA091CB04B0917E
:10130000CC04512C412CF12CE12C109731F580911B
:10131000C9049091CA048815990509F05CC0461665
:10132000570608F058C08091000290910102009782
:1013300041F48DB79EB74091040250910502841B81
:10134000950BE817F90708F055C0F093CA04E0932D
:10135000C904F90171836083B8CF8D919C91119775
:1013600012966C90129713967C901397A815B90556
:1013700059F56C0142E0C40ED11CCA14DB0420F103
:10138000AC014A195B09DA011296159780F0628266
:10139000738251834083D9016D937C93E114F104EE
:1013A00071F0D7011396FC93EE9312978ECF22968D
:1013B0008C0F9D1FF90191838083F301EFCFF09390
:1013C000CC04E093CB0481CF4816590608F42C01D5
:1013D0007D01D3019ACFCB010E94F7077C010097D2
:1013E00049F0AE01B8010E94FD09C8010E949308AE
:1013F00087016BCF10E000E068CFFB01DC0102C089
:1014000001900D9241505040D8F70895FB01DC0146
:0E14100001900D920020E1F70895F894FFCFAF
:10141E000000CD0480000000000007020201480118
:10142E005402B10157016B010D0A00203D3E200010
:10143E0047455400426F617264203200426F617200
:10144E0064203300426F61726420340054454D5065
:06145E00004156470000AA
:00000001FF
